:020000040800F2
:100000000028002031170008491500084F15000886
:10001000551500085B150008611500080000000078
:10002000000000000000000000000000671500084C
:1000300073150008000000007F1500088B150008EC
:100040007917000879170008791700087917000850
:100050007917000879170008791700087917000840
:100060007917000879170008791700087917000830
:100070007917000879170008791700087917000820
:100080007917000879170008791700087917000810
:100090007917000879170008791700087917000800
:1000A00079170008791700087917000879170008F0
:1000B000991500087917000800000000791700085A
:1000C0007917000800000000000000007917000800
:1000D00000000000791700087917000800000000F0
:1000E0007917000879170008791700080000000048
:1000F0000000000000000000000000000000000000
:0C01000000000000000000005FF808F1A3
:10010C0010B5054C237833B9044B13B10448AFF345
:10011C0000800123237010BD44000020000000006B
:10012C00A02D000808B5034B1BB103490348AFF3DE
:10013C00008008BD0000000048000020A02D000831
:10014C0080B500AF01227E21084801F012FE012289
:10015C004FF47E71064801F00CFE01224FF4FE4173
:10016C00024801F006FE00BF80BD00BF0008014040
:10017C00000C014080B582B000AF78607B68092B21
:10018C0000F28E8001A252F823F000BFC1010008DA
:10019C00DB010008F30100080D020008270200082B
:1001AC003F020008570200086F020008870200088F
:1001BC009502000800224FF4FC71414801F0D9FD72
:1001CC0001224FF400713E4801F0D3FD74E001228E
:1001DC004FF472713A4801F0CCFD002230213848BE
:1001EC0001F0C7FD68E000224FF43671344801F08D
:1001FC00C0FD01224FF49071314801F0BAFD5BE073
:10020C0000224FF41E712E4801F0B3FD01224FF471
:10021C00C0712B4801F0ADFD4EE00122C8212848E9
:10022C0001F0A7FD00224FF44C71254801F0A1FD0F
:10023C0042E000224FF45A71214801F09AFD01224C
:10024C0090211F4801F095FD36E000224FF47A71A1
:10025C001B4801F08EFD01221021194801F089FD87
:10026C002AE000223821164801F083FD01224FF4C8
:10027C007071134801F07DFD1EE000224FF47E7179
:10028C000F4801F076FD17E000224FF45E710C4828
:10029C0001F06FFD01228021094801F06AFD0BE09D
:1002AC0000224FF45E71064801F063FD01228021AB
:1002BC00034801F05EFD00BF00BF0837BD4680BD9E
:1002CC00000C014080B582B000AF78607B68092BD0
:1002DC0000F2948001A252F823F000BF1103000831
:1002EC002B030008450300085F030008790300088E
:1002FC0093030008AD030008C7030008E1030008DE
:10030C00EF03000800224FF47C51454801F031FD09
:10031C0001224FF48041424801F02BFD7BE0012289
:10032C004FF4F2413E4801F024FD00224FF4C0612D
:10033C003B4801F01EFD6EE000224FF4B6413848F8
:10034C0001F017FD01224FF41051354801F011FD59
:10035C0061E000224FF49E41314801F00AFD012278
:10036C004FF440512E4801F004FD54E001224FF4AB
:10037C00C8512B4801F0FDFC00224FF4CC41284819
:10038C0001F0F7FC47E000224FF4DA41244801F079
:10039C00F0FC01224FF49051214801F0EAFC3AE0C4
:1003AC0000224FF4FA411E4801F0E3FC01224FF405
:1003BC0000711B4801F0DDFC2DE000224FF4E061E0
:1003CC00174801F0D6FC01224FF4F041144801F01B
:1003DC00D0FC20E000224FF4FE41114801F0C9FC92
:1003EC0019E000224FF4DE410D4801F0C2FC01225D
:1003FC004FF480510A4801F0BCFC0CE000224FF491
:10040C00DE41074801F0B5FC01224FF4805104484D
:10041C0001F0AFFC00BF00BF0837BD4680BD00BF78
:10042C000008014080B483B000AF786039607B680D
:10043C00092B06DC1D4B00221A601C4A7B6853609A
:10044C0012E07B681A4A82FB03129210DB17D31A54
:10045C00164A1360154B1B686FF0090202FB03F27E
:10046C007B681344114A53603B68092B06DC114B23
:10047C0000221A600F4A3B68536012E03B680C4A3A
:10048C0082FB03129210DB17D31A0A4A1360094B32
:10049C001B686FF0090202FB03F23B681344054A28
:1004AC00536000BF0C37BD4680BC70470000002075
:1004BC00676666660800002080B582B000AF786081
:1004CC007B68002B03D07B68012B14D027E0002223
:1004DC004FF48061144801F04CFC01224FF4006190
:1004EC00114801F046FC114A7B6852F8233018463B
:1004FC00FFF740FE13E001224FF480610A4801F03F
:10050C0038FC00224FF40061074801F032FC074A26
:10051C007B6852F823301846FFF72CFE00BF00BF53
:10052C000837BD4680BD00BF000C01400000002014
:10053C0080B582B000AF78607B68002B03D07B68FD
:10054C00012B14D027E000224FF48051144801F005
:10055C0010FC01224FF40051114801F00AFC114A21
:10056C007B6852F823301846FFF7ACFE13E00122EB
:10057C004FF480510A4801F0FCFB00224FF400516B
:10058C00074801F0F6FB074A7B6852F823301846FF
:10059C00FFF798FE00BF00BF0837BD4680BD00BF07
:1005AC00000C01400800002080B500AF764B1B7892
:1005BC00032B00F2DE8101A252F823F0D9050008CA
:1005CC00B7060008B90700089508000800220221A8
:1005DC006E4801F0CEFB012204216C4801F0C9FBEE
:1005EC0001220821694801F0C4FB0122102167484F
:1005FC0001F0BFFB01222021644801F0BAFB00226C
:10060C004021624801F0B5FB614B1B68614A1268DE
:10061C0011461846FFF706FF5F4B1B68012B38D1BC
:10062C005E4B1B685A1C5D490A601846FFF744FF75
:10063C005B4B1B685A1C5A490A601846FFF778FF37
:10064C00584B1B680133574A1360564B1B68022BDF
:10065C000CD14F4B1B68013B4D4A13604D4B1B6833
:10066C00013B4C4A13604F4B00221A604B4B1B68EA
:10067C000222934204DA4A4B1B680222934205DBA6
:10068C00464B00221A60464B00221A60FA2000F0FA
:10069C00A9FF404B1B68002B00F364813A4B0122ED
:1006AC001A70404B00221A605CE10022022137488C
:1006BC0001F05FFB01220421344801F05AFB0122B6
:1006CC000821324801F055FB012210212F4801F07E
:1006DC0050FB002220212D4801F04BFB0122402130
:1006EC002A4801F046FB2A4B1B682F4A1268114618
:1006FC001846FFF797FE284B1B68012B38D1274B68
:10070C001B685A1C25490A601846FFF7D5FE244B76
:10071C001B685A1C22490A601846FFF709FF214B37
:10072C001B6801331F4A13601E4B1B68022B0CD134
:10073C00174B1B68013B164A13601B4B1B68013B94
:10074C00194A1360174B00221A60144B1B680222C3
:10075C00934204DA124B1B680222934205DB0F4BC7
:10076C0000221A600E4B00221A60FA2000F03AFFA9
:10077C00074B1B68002B00F3F780034B02221A7007
:10078C00084B00221A60EFE07900002000080140BD
:10079C001800002024000020A80000206000002089
:1007AC00640000207400002030000020012202218F
:1007BC00834801F0DEFA01220421814801F0D9FAC4
:1007CC00002208217E4801F0D4FA002210217C4836
:1007DC0001F0CFFA01222021794801F0CAFA012256
:1007EC004021774801F0C5FA764B1B68764A1268AF
:1007FC0011461846FFF716FE744B1B68012B38D1B7
:10080C00734B1B685A1C72490A601846FFF754FE5A
:10081C00704B1B685A1C6F490A601846FFF788FE1C
:10082C006D4B1B6801336C4A13606B4B1B68022BBE
:10083C000CD1654B1B68013B634A1360614B1B6811
:10084C00013B604A1360644B00221A60604B1B68CA
:10085C000222934204DA5F4B1B680222934205DBAF
:10086C005B4B00221A605B4B00221A60FA2000F0EE
:10087C00B9FE544B1B68002B78DC584B03221A70C2
:10088C00554B00221A6071E0012202214C4801F004
:10089C0070FA002204214A4801F06BFA0122082167
:1008AC00474801F066FA00221021454801F061FA30
:1008BC0001222021424801F05CFA012240214048EB
:1008CC0001F057FA464B1B683F4A1268114618460E
:1008DC00FFF7A8FD3D4B1B68012B38D13C4B1B6827
:1008EC005A1C3B490A601846FFF7E6FD394B1B685A
:1008FC005A1C38490A601846FFF71AFE364B1B681B
:10090C000133354A1360344B1B68022B0CD12E4B30
:10091C001B68013B2C4A1360314B1B68013B304A6E
:10092C0013602D4B00221A60294B1B680222934244
:10093C0004DA284B1B680222934205DB244B00226D
:10094C001A60244B00221A60FA2000F04BFE1E4B5A
:10095C001B68002B0CDC214B00221A701E4B002252
:10096C001A6005E000BF04E000BF02E000BF00E039
:10097C0000BF154B1B681B4A1360194B1B681A4AA6
:10098C001360104B1B68194A13600F4B1B68002B2C
:10099C0003DC144B1B680C4A13600A4B1B68002BBE
:1009AC0003DC124B1B68074A13600D4B1B68002BB2
:1009BC0003DC0D4B1B680A4A136000BF80BD00BFEF
:1009CC00000801402400002018000020A80000208E
:1009DC0060000020640000207400002079000020DA
:1009EC0030000020140000202C00002020000020EB
:1009FC0080B500AF2C4B1B68012B21D12B4B1B68F6
:100A0C00002B02D0012B09D011E001221221284821
:100A1C0001F0AFF9254B01221A6008E000221221E7
:100A2C00234801F0A6F9214B00221A6000BF0122D5
:100A3C006C211F4801F09DF94FF4FA7000F0EEFDA7
:100A4C001C4B1B681C4A13601B4B1B68022118466D
:100A5C00FFF7E8FC194B1B68012B22D1184B1B68C4
:100A6C005A1C17490A601846FFF726FD154B1B68E0
:100A7C005A1C14490A601846FFF75AFD104B1B68A4
:100A8C000222934204DA0F4B1B680222934205DBCD
:100A9C000B4B00221A600B4B00221A60FA2000F05C
:100AAC00A1FD00BF80BD00BFB00000206800002089
:100ABC00000801401400002010000020A8000020B5
:100ACC00600000206400002080B500AF2C4B1B6838
:100ADC00012B21D12B4B1B68002B02D0012B09D0F1
:100AEC0011E001222421284801F043F9254B012271
:100AFC001A6008E000222421234801F03AF9214B26
:100B0C0000221A6000BF01225A211F4801F031F95E
:100B1C004FF4FA7000F082FD1C4B1B681C4A1360EA
:100B2C001B4B1B6803211846FFF77CFC194B1B68F9
:100B3C00012B22D1184B1B685A1C17490A60184606
:100B4C00FFF7BAFC154B1B685A1C14490A6018466F
:100B5C00FFF7EEFC104B1B680222934204DA0F4B9A
:100B6C001B680222934205DB0B4B00221A600B4BD5
:100B7C0000221A60FA2000F035FD00BF80BD00BFD6
:100B8C00B00000206C000020000801402C00002068
:100B9C0028000020A8000020600000206400002035
:100BAC0080B500AF2C4B1B68012B21D12B4B1B6844
:100BBC00002B02D0012B09D011E00122482128483A
:100BCC0001F0D7F8254B01221A6008E000224821D9
:100BDC00234801F0CEF8214B00221A6000BF0122FD
:100BEC0036211F4801F0C5F84FF4FA7000F016FDDD
:100BFC001C4B1B681C4A13601B4B1B6804211846BA
:100C0C00FFF710FC194B1B68012B22D1184B1B68EA
:100C1C005A1C17490A601846FFF74EFC154B1B6807
:100C2C005A1C14490A601846FFF782FC104B1B68CB
:100C3C000222934204DA0F4B1B680222934205DB1B
:100C4C000B4B00221A600B4B00221A60FA2000F0AA
:100C5C00C9FC00BF80BD00BFB000002070000020A8
:100C6C0000080140200000201C000020A8000020EB
:100C7C00600000206400002080B500AF0C4B1B7896
:100C8C00012B01D1FFF790FC094B1B78022B01D1F2
:100C9C00FFF7AEFE064B1B78032B01D1FFF714FFB9
:100CAC00034B1B78042B01D1FFF77AFF00BF80BDEB
:100CBC007800002080B500AF00F05AFD00F01AF863
:100CCC0000F0A0F800F052F8094801F0A3FC0A204B
:100CDC0000F06CFC0A2000F085FC0A2000F09EFC61
:100CEC00FFF72EFA00F0F6F8FFF7C6FFFAE700BFA1
:100CFC00BC00002080B590B000AF07F1180328228B
:100D0C000021184602F03EF83B1D00221A605A6082
:100D1C009A60DA601A610223BB610123BB62102363
:100D2C00FB6200237B6307F11803184601F03AF8C5
:100D3C000346002B01D000F0C7F80F237B60002383
:100D4C00BB600023FB6000233B6100237B613B1DE8
:100D5C000021184601F0A6FA0346002B01D000F042
:100D6C00B3F800BF4037BD4680BD000080B586B0EB
:100D7C0000AF07F1080300221A605A609A60DA602B
:100D8C003B4600221A605A601D4B4FF080421A609D
:100D9C001B4B41F63F725A60194B00229A60184B5C
:100DAC000922DA60164B00221A61154B00229A6157
:100DBC00134801F0DFFB0346002B01D000F084F850
:100DCC004FF48053BB6007F1080319460C4801F03F
:100DDC0075FD0346002B01D000F076F800233B6034
:100DEC0000237B603B461946054801F03DFF034656
:100DFC00002B01D000F068F800BF1837BD4680BD4D
:100E0C00BC00002080B586B000AF07F108030022BB
:100E1C001A605A609A60DA60284B9B69274A43F043
:100E2C0004039361254B9B6903F004037B607B688F
:100E3C00224B9B69214A43F0080393611F4B9B692A
:100E4C0003F008033B603B68002247F6FE711C4828
:100E5C0000F08FFF002243F6F8711A4800F089FF6A
:100E6C0047F6FE73BB600123FB6000233B6102234A
:100E7C007B6107F108031946114800F0E9FD0723CF
:100E8C00BB600023FB6000233B6107F1080319469C
:100E9C000C4800F0DDFD43F6F873BB600123FB60EA
:100EAC0000233B6102237B6107F1080319460548C7
:100EBC0000F0CEFD00BF1837BD4680BD00100240CB
:100ECC0000080140000C014080B400AF72B600BFB6
:100EDC00FEE7000080B500AFA04B1B78022B4BD077
:100EEC00022B58DC002B02D0012B31D053E0002018
:100EFC0000F09AFA0346002B28D0984B01221A7066
:100F0C00974B1B78042B41D801A252F823F000BF59
:100F1C00310F0008390F0008410F0008490F000875
:100F2C00510F00088E4B01221A7010E08C4B0222DC
:100F3C001A700CE08A4B03221A7008E0884B0422CA
:100F4C001A7004E0864B01221A7000E000BF1DE00D
:100F5C00002000F069FA0346002B03D17F4B0022DE
:100F6C001A7015E0002000F079FA0346002B0FD020
:100F7C007A4B02221A700BE0002000F06FFA034645
:100F8C00002B07D1754B00221A7003E000BF02E062
:100F9C0000BF00E000BF734B1B78022B56D0022B16
:100FAC0000F3A380002B02D0012B3BD09DE001204D
:100FBC0000F03AFA0346002B00F09280694B0122B4
:100FCC001A70674B1B78022B0BD1674B1B680133D4
:100FDC00654A1360644B1B68622B02DD624B012275
:100FEC001A605F4B1B78032B0BD1604B1B680133D2
:100FFC005E4A13605D4B1B68622B02DD5B4B01226A
:10100C001A60574B1B78042B6AD1594B1B68013360
:10101C00574A1360564B1B68622B61DD544B0122FF
:10102C001A605DE0012000F0FFF90346002B03D1AC
:10103C004C4B00221A7055E0012000F00FFA0346C9
:10104C00002B4FD0474B02221A704BE0012000F0CE
:10105C0005FA0346002B05D1424B00221A70454B72
:10106C0000225A80434B5B8801339AB2414B5A8021
:10107C00404B5B88312B37D9394B1B78022B0BD16A
:10108C00394B1B680133384A1360374B1B68622B92
:10109C0002DD354B01221A60314B1B78032B0BD12F
:1010AC00324B1B680133314A1360304B1B68622B87
:1010BC0002DD2E4B01221A60294B1B78042B0BD11D
:1010CC002B4B1B6801332A4A1360294B1B68622B7C
:1010DC0002DD274B01221A60264B00225A8003E0C6
:1010EC0000BF02E000BF00E000BF234B1B78022BC7
:1010FC0064D0022B71DC002B02D0012B4AD06CE0A7
:10110C00022000F091F90346002B61D01A4B01220A
:10111C001A70134B1B78022B07D1134B1B68174A01
:10112C001360114B1B68164A13600D4B1B78032B75
:10113C0007D10E4B1B68134A13600C4B1B68124AE9
:10114C001360074B1B78042B42D1094B1B680F4AC9
:10115C001360074B1B680E4A136039E07A000020BD
:10116C00780000207B000020140000202C000020C0
:10117C0020000020800000207C00002010000020B7
:10118C001800002028000020300000201C00002047
:10119C0024000020022000F047F90346002B03D165
:1011AC000F4B00221A7015E0022000F057F903468D
:1011BC00002B0FD00A4B02221A700BE0022000F019
:1011CC004DF90346002B07D1054B00221A7003E0A2
:1011DC0000BF02E000BF00E000BF00BF80BD00BF49
:1011EC007C00002080B582B000AF00237B6005E15D
:1011FC007B68022B00F0AB807B68022B00F3FB803A
:10120C007B68002B03D07B68012B50D0F3E0804A25
:10121C007B68134419787F4A7B6813440A461A701A
:10122C0001217D4800F08EFD03461946784A7B6803
:10123C0013440A461A70764A7B6813441A78754927
:10124C007B680B441B789A4240F0D080704A7B68D4
:10125C0013441978714A7B6813440A461A706F4A12
:10126C007B6813441B78002B16D16D4A7B6832F8CF
:10127C001330632B0AD86A4A7B6832F81330013377
:10128C0099B2674A7B6822F81310AFE0654A7B6815
:10129C00134401221A70A9E0614A7B68002122F8EC
:1012AC001310604A7B68134400221A709EE0584A5F
:1012BC007B6813441978574A7B6813440A461A70A2
:1012CC000221554800F03EFD03461946504A7B6802
:1012DC0013440A461A704E4A7B6813441A784D49D7
:1012EC007B680B441B789A4240F08280484A7B68AA
:1012FC0013441978494A7B6813440A461A70474AC2
:10130C007B6813441B78002B16D1454A7B6832F856
:10131C001330632B0AD8424A7B6832F813300133FE
:10132C0099B23F4A7B6822F8131061E03D4A7B6812
:10133C00134401221A705BE0394A7B68002122F8C1
:10134C001310384A7B68134400221A7050E0304A5C
:10135C007B68134419782F4A7B6813440A461A7029
:10136C0004212D4800F0EEFC03461946284A7B6800
:10137C0013440A461A70264A7B6813441A78254986
:10138C007B680B441B789A4234D1214A7B68134406
:10139C001978224A7B6813440A461A701F4A7B68E4
:1013AC0013441B78002B16D11D4A7B6832F813307E
:1013BC00632B0AD81A4A7B6832F81330013399B27E
:1013CC00174A7B6822F8131014E0164A7B68134402
:1013DC0001221A700EE0124A7B68002122F81310C9
:1013EC00104A7B68134400221A7003E000BF02E02D
:1013FC0000BF00E000BF7B6801337B607B68022B81
:10140C007FF7F6AE00BF00BF0837BD4680BD00BFFA
:10141C00880000208C000020000C014034000020CB
:10142C00940000209000002080B483B000AF0346ED
:10143C00FB71FB79022B01D9002307E0FB79064AEB
:10144C00D35C002B0CBF01230023DBB218460C37F6
:10145C00BD4680BC704700BF3400002080B483B010
:10146C0000AF0346FB71FB79022B01D9FF2307E088
:10147C00FB79064AD35C012B0CBF01230023DBB2A2
:10148C0018460C37BD4680BC704700BF900000204A
:10149C0080B485B000AF154B9B69144A43F001032F
:1014AC009361124B9B6903F00103BB60BB680F4B4C
:1014BC00DB690E4A43F08053D3610C4BDB6903F0BC
:1014CC0080537B607B680A4B5B68FB60FB6823F096
:1014DC00E063FB60FB6843F08063FB60044AFB68DD
:1014EC00536000BF1437BD4680BC704700100240EB
:1014FC000000014080B584B000AF78607B681B6849
:10150C00B3F1804F13D10C4BDB690B4A43F0010351
:10151C00D361094BDB6903F00103FB60FB6800221C
:10152C0000211C2000F05DFA1C2000F076FA00BFB0
:10153C001037BD4680BD00BF0010024080B400AF24
:10154C00FEE780B400AFFEE780B400AFFEE780B4E6
:10155C0000AFFEE780B400AFFEE780B400AF00BF81
:10156C00BD4680BC704780B400AF00BFBD4680BC98
:10157C00704780B400AF00BFBD4680BC704780B5DB
:10158C0000AF00F03BF900BF80BD000080B500AF9C
:10159C00024801F08BF800BF80BD00BFBC000020EA
:1015AC0080B400AF00BFBD4680BC704780B483B030
:1015BC0000AF78607B68084A82FB03129210DB173D
:1015CC00D31A064A1360064B00221A6000BF0C3770
:1015DC00BD4680BC704700BF676666669C000020F5
:1015EC00A000002080B483B000AF78607B68084A0C
:1015FC0082FB03129210DB17D31A064A1360064BB8
:10160C0000221A6000BF0C37BD4680BC704700BF7B
:10161C0067666666A4000020A800002080B483B032
:10162C0000AF78607B68084A82FB03129210DB17CC
:10163C00D31A064A1360064B00221A6000BF0C37FF
:10164C00BD4680BC704700BF67666666AC00002074
:10165C00B000002080B400AF214B1B68002B0BDDC9
:10166C001F4B1B68013B1E4A13601D4B1B68002B54
:10167C0002DC1C4B01221A601B4B1B68002B0BDD80
:10168C00194B1B68013B184A1360174B1B68002B46
:10169C0002DC164B01221A60154B1B68002B0BDD6C
:1016AC00134B1B68013B124A1360114B1B68002B38
:1016BC0002DC104B01221A600F4B1B68002B0BDD58
:1016CC000D4B1B68013B0C4A13600B4B1B68002B2A
:1016DC0002DC0A4B01221A6000BFBD4680BC704779
:1016EC009C000020A0000020A4000020A8000020E6
:1016FC00AC000020B0000020B4000020B800002096
:10170C0080B582B000AF78607B681B68B3F1804F06
:10171C0003D1FFF767FDFFF79DFF00BF0837BD46FC
:10172C0080BD00000C480D490D4A002302E0D4583E
:10173C00C4500433C4188C42F9D30A4A0A4C00230F
:10174C0001E013600432A242FBD3FFF729FF01F042
:10175C00F5FAFFF7AFFA70470000002044000020B4
:10176C00E02D00084400002008010020FEE70000E6
:10177C0080B500AF084B1B68074A43F01003136099
:10178C00032000F023F90F2000F008F8FFF780FE8B
:10179C000023184680BD00BF0020024080B582B0F7
:1017AC0000AF7860124B1A68124B1B7819464FF435
:1017BC007A73B3FBF1F3B2FBF3F3184600F03BF989
:1017CC000346002B01D001230EE07B680F2B0AD8B7
:1017DC00002279684FF0FF3000F003F9064A7B686D
:1017EC001360002300E0012318460837BD4680BD76
:1017FC0038000020400000203C00002080B400AFE6
:10180C00054B1B781A46054B1B681344034A13609F
:10181C0000BFBD4680BC7047400000200401002082
:10182C0080B400AF024B1B681846BD4680BC7047A5
:10183C000401002080B485B000AF78607B6803F0B1
:10184C000703FB600C4BDB68BB60BA684FF6FF0309
:10185C001340BB60FB681A02BB68134343F0BF63C1
:10186C0043F40033BB60044ABB68D36000BF143739
:10187C00BD4680BC704700BF00ED00E080B400AFF7
:10188C00044BDB681B0A03F007031846BD4680BCFB
:10189C00704700BF00ED00E080B483B000AF03469A
:1018AC00FB7197F90730002B0BDBFB7903F01F0260
:1018BC00064997F907305B09012000FA02F241F85A
:1018CC00232000BF0C37BD4680BC704700E100E010
:1018DC0080B483B000AF03463960FB7197F90730D1
:1018EC00002B0ADB3B68DAB20C4997F9073012017E
:1018FC00D2B20B4483F800230AE03B68DAB2084901
:10190C00FB7903F00F03043B1201D2B20B441A769D
:10191C0000BF0C37BD4680BC704700BF00E100E043
:10192C0000ED00E080B489B000AFF860B9607A6077
:10193C00FB6803F00703FB61FB69C3F10703042B8E
:10194C0028BF0423BB61FB690433062B02D9FB6956
:10195C00033B00E000237B614FF0FF32BB6902FACE
:10196C0003F3DA43BB681A407B699A404FF0FF31AE
:10197C007B6901FA03F3D9437B680B401343184688
:10198C002437BD4680BC704780B582B000AF78600C
:10199C007B68013BB3F1807F01D301230FE00A4A3E
:1019AC007B68013B53600F214FF0FF30FFF790FF36
:1019BC00054B00229A60044B07221A60002318463C
:1019CC000837BD4680BD00BF10E000E080B582B096
:1019DC0000AF78607868FFF72DFF00BF0837BD4671
:1019EC0080BD80B586B000AF0346B9607A60FB73EA
:1019FC0000237B61FFF742FF78617A68B9687869E8
:101A0C00FFF790FF024697F90F3011461846FFF783
:101A1C005FFF00BF1837BD4680BD80B582B000AFF8
:101A2C000346FB7197F907301846FFF735FF00BFE7
:101A3C000837BD4680BD80B582B000AF786078684D
:101A4C00FFF7A2FF034618460837BD4680BD0000CD
:101A5C0080B48BB000AF7860396000237B620023C8
:101A6C003B6248E101227B6A02FA03F3FB613B68AB
:101A7C001B68FA691340BB61BA69FB699A4240F072
:101A8C0037813B685B68A34A93425ED0A14A93427C
:101A9C0075D8A14A934258D09F4A93426FD89F4A17
:101AAC00934252D09D4A934269D89D4A93424CD05E
:101ABC009B4A934263D89B4A934246D0994A93429D
:101ACC005DD8122B2AD8122B59D801A252F823F028
:101ADC00571B0008311B0008431B0008851B00081E
:101AEC008B1B00088B1B00088B1B00088B1B000832
:101AFC008B1B00088B1B00088B1B00088B1B000822
:101B0C008B1B00088B1B00088B1B00088B1B000811
:101B1C008B1B0008391B00084D1B0008824A93429E
:101B2C0013D02CE03B68DB683B6229E03B68DB6848
:101B3C0004333B6224E03B68DB6808333B621FE004
:101B4C003B68DB680C333B621AE03B689B68002BFC
:101B5C0002D104233B6213E03B689B68012B05D147
:101B6C0008233B627B68FA691A6109E008233B622F
:101B7C007B68FA695A6103E000233B6200E000BF16
:101B8C00BB69FF2B01D87B6801E07B6804337B6168
:101B9C00BB69FF2B02D87B6A9B0002E07B6A083B87
:101BAC009B003B617B691A680F213B6901FA03F3C7
:101BBC00DB431A40396A3B6901FA03F31A437B6928
:101BCC001A603B685B6803F08053002B00F0908038
:101BDC00564B9B69554A43F001039361534B9B69E8
:101BEC0003F00103BB60BB68514A7B6A9B0802335C
:101BFC0052F82330FB607B6A03F003039B000F2237
:101C0C0002FA03F3DB43FA681340FB607B68494A32
:101C1C0093420DD07B68484A934207D07B68474A71
:101C2C00934201D1022304E0032302E0012300E0EC
:101C3C0000237A6A02F0030292009340FA6813437D
:101C4C00FB603B497B6A9B080233FA6841F823200E
:101C5C003B685B6803F48033002B06D0384B1A6862
:101C6C003749BB6913430B6006E0354B1A68BB69F7
:101C7C00DB43334913400B603B685B6803F4003370
:101C8C00002B06D02E4B5A682D49BB6913434B6071
:101C9C0006E02B4B5A68BB69DB43294913404B6068
:101CAC003B685B6803F48013002B06D0244B9A68C6
:101CBC002349BB6913438B6006E0214B9A68BB69CF
:101CCC00DB431F4913408B603B685B6803F40013D4
:101CDC00002B06D01A4BDA681949BB691343CB6049
:101CEC0006E0174BDA68BB69DB4315491340CB6040
:101CFC007B6A01337B623B681A687B6A22FA03F3C6
:101D0C00002B7FF4AFAE00BF00BF2C37BD4680BCAC
:101D1C00704700BF0000321000003110000022108C
:101D2C0000002110000012100000111000100240E1
:101D3C000000014000080140000C0140001001406F
:101D4C000004014080B485B000AF78600B467B8006
:101D5C007B689A687B881340002B02D00123FB73AD
:101D6C0001E00023FB73FB7B18461437BD4680BC97
:101D7C00704780B483B000AF78600B467B8013460D
:101D8C007B707B78002B03D07A887B681A6103E028
:101D9C007B881A047B681A6100BF0C37BD4680BC77
:101DAC007047000080B586B000AF78607B68002B70
:101DBC0001D101236CE27B681B6803F00103002B4B
:101DCC0000F08780924B5B6803F00C03042B0CD063
:101DDC008F4B5B6803F00C03082B12D18C4B5B68A8
:101DEC0003F48033B3F5803F0BD1894B1B6803F4AC
:101DFC000033002B6CD07B685B68002B68D101230F
:101E0C0046E27B685B68B3F5803F06D1804B1B686C
:101E1C007F4A43F4803313602EE07B685B68002BB1
:101E2C000CD17B4B1B687A4A23F480331360784BBC
:101E3C001B68774A23F4802313601DE07B685B6882
:101E4C00B3F5A02F0CD1724B1B68714A43F480235D
:101E5C0013606F4B1B686E4A43F4803313600BE0C6
:101E6C006B4B1B686A4A23F480331360684B1B6806
:101E7C00674A23F4802313607B685B68002B13D0C4
:101E8C00FFF7CEFC386108E0FFF7CAFC02463B695D
:101E9C00D31A642B01D90323FAE15D4B1B6803F4BD
:101EAC000033002BF0D014E0FFF7BAFC386108E0E7
:101EBC00FFF7B6FC02463B69D31A642B01D9032306
:101ECC00E6E1534B1B6803F40033002BF0D100E028
:101EDC0000BF7B681B6803F00203002B63D04C4BE4
:101EEC005B6803F00C03002B0BD0494B5B6803F0D1
:101EFC000C03082B1CD1464B5B6803F48033002B7E
:101F0C0016D1434B1B6803F00203002B05D07B68F2
:101F1C001B69012B01D00123BAE13D4B1B6823F057
:101F2C00F8027B685B69DB00394913430B603AE0CC
:101F3C007B681B69002B20D0364B01221A60FFF7FF
:101F4C006FFC386108E0FFF76BFC02463B69D31A63
:101F5C00022B01D903239BE12D4B1B6803F00203D9
:101F6C00002BF0D02A4B1B6823F0F8027B685B69CE
:101F7C00DB00274913430B6015E0264B00221A6047
:101F8C00FFF74EFC386108E0FFF74AFC02463B695C
:101F9C00D31A022B01D903237AE11D4B1B6803F0E2
:101FAC000203002BF0D17B681B6803F00803002BA5
:101FBC003AD07B689B69002B19D0174B01221A6011
:101FCC00FFF72EFC386108E0FFF72AFC02463B695C
:101FDC00D31A022B01D903235AE10D4B5B6A03F090
:101FEC000203002BF0D0012000F0A6FA1CE00A4BF3
:101FFC0000221A60FFF714FC38610FE0FFF710FCA9
:10200C0002463B69D31A022B08D9032340E100BFD7
:10201C000010024000004242800442429E4B5B6A28
:10202C0003F00203002BE9D17B681B6803F0040367
:10203C00002B00F0A6800023FB75974BDB6903F0A7
:10204C008053002B0DD1944BDB69934A43F08053A2
:10205C00D361914BDB6903F08053BB60BB680123F8
:10206C00FB758E4B1B6803F48073002B18D18B4BC4
:10207C001B688A4A43F480731360FFF7D1FB386105
:10208C0008E0FFF7CDFB02463B69D31A642B01D95C
:10209C000323FDE0814B1B6803F48073002BF0D00D
:1020AC007B68DB68012B06D17B4B1B6A7A4A43F0B9
:1020BC00010313622DE07B68DB68002B0CD1764B9F
:1020CC001B6A754A23F001031362734B1B6A724A35
:1020DC0023F0040313621CE07B68DB68052B0CD136
:1020EC006D4B1B6A6C4A43F0040313626A4B1B6A08
:1020FC00694A43F0010313620BE0674B1B6A664AA3
:10210C0023F001031362644B1B6A634A23F004033C
:10211C0013627B68DB68002B15D0FFF781FB3861FD
:10212C000AE0FFF77DFB02463B69D31A41F2883285
:10213C00934201D90323ABE0574B1B6A03F0020314
:10214C00002BEED014E0FFF76BFB38610AE0FFF7D1
:10215C0067FB02463B69D31A41F28832934201D99C
:10216C00032395E04C4B1B6A03F00203002BEED1CA
:10217C00FB7D012B05D1484BDB69474A23F080538B
:10218C00D3617B68DB69002B00F08180424B5B687C
:10219C0003F00C03082B61D07B68DB69022B46D162
:1021AC003F4B00221A60FFF73BFB386108E0FFF75A
:1021BC0037FB02463B69D31A022B01D9032367E094
:1021CC00354B1B6803F00073002BF0D17B681B6A46
:1021DC00B3F5803F08D1304B5B6823F400327B6849
:1021EC009B682D4913434B602B4B5B6823F4741293
:1021FC007B68196A7B685B6A0B43274913434B6006
:10220C00274B01221A60FFF70BFB386108E0FFF740
:10221C0007FB02463B69D31A022B01D9032337E093
:10222C001D4B1B6803F00073002BF0D02FE01C4BF0
:10223C0000221A60FFF7F4FA386108E0FFF7F0FAB1
:10224C0002463B69D31A022B01D9032320E0124B1F
:10225C001B6803F00073002BF0D118E07B68DB697E
:10226C00012B01D1012313E00B4B5B68FB60FB6876
:10227C0003F480327B681B6A9A4206D1FB6803F434
:10228C0070127B685B6A9A4201D0012300E0002344
:10229C0018461837BD4680BD001002400070004043
:1022AC006000424280B584B000AF786039607B68D2
:1022BC00002B01D10123D0E06A4B1B6803F007030C
:1022CC003A689A4210D9674B1B6823F0070265499C
:1022DC003B6813430B60634B1B6803F007033A68BE
:1022EC009A4201D00123B8E07B681B6803F002031B
:1022FC00002B20D07B681B6803F00403002B05D057
:10230C00594B5B68584A43F4E06353607B681B6825
:10231C0003F00803002B05D0534B5B68524A43F47F
:10232C0060535360504B5B6823F0F0027B689B68F2
:10233C004D4913434B607B681B6803F00103002B72
:10234C0040D07B685B68012B07D1474B1B6803F4BB
:10235C000033002B15D101237FE07B685B68022BD7
:10236C0007D1414B1B6803F00073002B09D10123EB
:10237C0073E03D4B1B6803F00203002B01D10123DA
:10238C006BE0394B5B6823F003027B685B68364972
:10239C0013434B60FFF744FAF8600AE0FFF740FA8A
:1023AC000246FB68D31A41F28832934201D90323C7
:1023BC0053E02D4B5B6803F00C027B685B689B0061
:1023CC009A42EBD1274B1B6803F007033A689A42F9
:1023DC0010D2244B1B6823F0070222493B6813439D
:1023EC000B60204B1B6803F007033A689A4201D03C
:1023FC00012332E07B681B6803F00403002B08D038
:10240C00194B5B6823F4E0627B68DB681649134365
:10241C004B607B681B6803F00803002B09D0124B40
:10242C005B6823F460527B681B69DB000E49134325
:10243C004B6000F021F802460B4B5B681B0903F064
:10244C000F030A49CB5C22FA03F3094A1360094BC8
:10245C001B681846FFF7A2F9002318461037BD4633
:10246C0080BD00BF0020024000100240C82D0008B3
:10247C00380000203C00002090B48AB000AF2A4BFA
:10248C003C1D0FCB84E80F0040F201233B8000235E
:10249C00FB610023BB6100237B6200237B61002373
:1024AC003B62224B5B68FB61FB6903F00C03042B62
:1024BC0002D0082B03D02DE01D4B3B622DE0FB69B5
:1024CC009B0C03F00F0307F12802134413F8243C70
:1024DC007B61FB6903F48033002B13D0134B5B68D7
:1024EC005B0C03F0010307F12802134413F8283C9A
:1024FC00BB617B690E4A02FB03F2BB69B2FBF3F3CF
:10250C007B6204E07B690B4A02FB03F37B627B6A10
:10251C003B6202E0064B3B6200BF3B6A1846283721
:10252C00BD4690BC704700BFB82D0008001002409B
:10253C0000127A0000093D0080B485B000AF7860CD
:10254C000A4B1B680A4AA2FB03235B0A7A6802FB4C
:10255C0003F3FB6000BFFB685A1EFA60002BF9D135
:10256C0000BF00BF1437BD4680BC70473800002048
:10257C00D34D621080B582B000AF78607B68002BC1
:10258C0001D1012341E07B6893F83D30DBB2002B95
:10259C0006D17B68002283F83C207868FEF7AAFFFE
:1025AC007B68022283F83D207B681A687B680433C1
:1025BC001946104600F06AFA7B68012283F846201F
:1025CC007B68012283F83E207B68012283F83F2040
:1025DC007B68012283F840207B68012283F841202C
:1025EC007B68012283F842207B68012283F8432018
:1025FC007B68012283F844207B68012283F8452004
:10260C007B68012283F83D20002318460837BD461D
:10261C0080BD000080B485B000AF78607B6893F813
:10262C003D30DBB2012B01D0012335E07B68022267
:10263C0083F83D207B681B68DA687B681B6842F076
:10264C000102DA607B681B68164A934209D07B68EA
:10265C001B68B3F1804F04D07B681B68124A93420D
:10266C0011D17B681B689B6803F00703FB60FB6858
:10267C00062B10D07B681B681A687B681B6842F0BD
:10268C0001021A6007E07B681B681A687B681B688C
:10269C0042F001021A60002318461437BD4680BC74
:1026AC00704700BF002C01400004004080B582B090
:1026BC0000AF78607B681B681B6903F00203022B78
:1026CC0022D17B681B68DB6803F00203022B1BD151
:1026DC007B681B686FF002021A617B6801221A7713
:1026EC007B681B689B6903F00303002B03D078689D
:1026FC0000F0B1F905E0786800F0A4F9786800F012
:10270C00B3F97B6800221A777B681B681B6903F09E
:10271C000403042B22D17B681B68DB6803F00403E1
:10272C00042B1BD17B681B686FF004021A617B6859
:10273C0002221A777B681B689B6903F44073002B99
:10274C0003D0786800F087F905E0786800F07AF932
:10275C00786800F089F97B6800221A777B681B681F
:10276C001B6903F00803082B22D17B681B68DB680C
:10277C0003F00803082B1BD17B681B686FF0080261
:10278C001A617B6804221A777B681B68DB6903F08B
:10279C000303002B03D0786800F05DF905E078683E
:1027AC0000F050F9786800F05FF97B6800221A7726
:1027BC007B681B681B6903F01003102B22D17B680C
:1027CC001B68DB6803F01003102B1BD17B681B68A4
:1027DC006FF010021A617B6808221A777B681B68FD
:1027EC00DB6903F44073002B03D0786800F033F9F5
:1027FC0005E0786800F026F9786800F035F97B6818
:10280C0000221A777B681B681B6903F00103012BFC
:10281C000ED17B681B68DB6803F00103012B07D129
:10282C007B681B686FF001021A617868FEF768FF1D
:10283C007B681B681B6903F08003802B0ED17B68BF
:10284C001B68DB6803F08003802B07D17B681B6857
:10285C006FF080021A61786800F067FA7B681B6879
:10286C001B6903F04003402B0ED17B681B68DB68AF
:10287C0003F04003402B07D17B681B686FF04002CC
:10288C001A61786800F0F9F87B681B681B6903F023
:10289C002003202B0ED17B681B68DB6803F0200320
:1028AC00202B07D17B681B686FF020021A617868B7
:1028BC0000F032FA00BF0837BD4680BD80B584B049
:1028CC0000AF786039607B6893F83C30012B01D104
:1028DC000223B3E07B68012283F83C207B68022250
:1028EC0083F83D207B681B689B68FB60FB6823F0CA
:1028FC007703FB60FB6823F47F43FB607B681B68FA
:10290C00FA689A603B681B68B3F5005F3ED0B3F57C
:10291C00005F00F28780B3F5805F00F08580B3F52F
:10292C00805F7FD8702B1AD0702B7BD8602B50D047
:10293C00602B77D8502B3CD0502B73D8402B58D0D1
:10294C00402B6FD8302B64D0302B6BD8202B60D021
:10295C00202B67D8002B5CD0102B5AD062E07B6800
:10296C0018683B6899683B685A683B68DB6800F0FC
:10297C005CF97B681B689B68FB60FB6843F0770322
:10298C00FB607B681B68FA689A604EE07B6818688D
:10299C003B6899683B685A683B68DB6800F045F90E
:1029AC007B681B689A687B681B6842F480429A605B
:1029BC003BE07B6818683B6859683B68DB681A46E3
:1029CC0000F0BCF87B681B685021184600F013F926
:1029DC002BE07B6818683B6859683B68DB681A46D3
:1029EC0000F0DAF87B681B686021184600F003F9E8
:1029FC001BE07B6818683B6859683B68DB681A46C3
:102A0C0000F09CF87B681B684021184600F0F3F836
:102A1C000BE07B681A683B681B681946104600F08F
:102A2C00EAF802E000BF00E000BF7B68012283F8F7
:102A3C003D207B68002283F83C2000231846103789
:102A4C00BD4680BD80B483B000AF786000BF0C374A
:102A5C00BD4680BC704780B483B000AF786000BFC7
:102A6C000C37BD4680BC704780B483B000AF786033
:102A7C0000BF0C37BD4680BC704780B483B000AF3C
:102A8C00786000BF0C37BD4680BC704780B485B001
:102A9C0000AF786039607B681B68FB607B68254AF7
:102AAC00934207D07B68B3F1804F03D07B68224AF6
:102ABC00934208D1FB6823F07003FB603B685B68B2
:102ACC00FA681343FB607B681A4A934207D07B6811
:102ADC00B3F1804F03D07B68174A934208D1FB684F
:102AEC0023F44073FB603B68DB68FA681343FB60BC
:102AFC00FB6823F080023B685B691343FB607B68D7
:102B0C00FA681A603B689A687B68DA623B681A68F4
:102B1C007B689A627B68074A934203D13B681A69C7
:102B2C007B681A637B6801225A6100BF1437BD466B
:102B3C0080BC7047002C01400004004080B487B07A
:102B4C0000AFF860B9607A60FB681B6A7B61FB6858
:102B5C001B6A23F00102FB681A62FB689B693B61EC
:102B6C003B6923F0F0033B617B681B013A6913431B
:102B7C003B617B6923F00A037B617A69BB68134371
:102B8C007B61FB683A699A61FB687A691A6200BFDB
:102B9C001C37BD4680BC704780B487B000AFF8606E
:102BAC00B9607A60FB681B6A23F01002FB681A623A
:102BBC00FB689B697B61FB681B6A3B617B6923F447
:102BCC0070437B617B681B037A6913437B613B69B0
:102BDC0023F0A0033B61BB681B013A6913433B61C3
:102BEC00FB687A699A61FB683A691A6200BF1C3704
:102BFC00BD4680BC704780B485B000AF786039604A
:102C0C007B689B68FB60FB6823F07003FB603A6891
:102C1C00FB68134343F00703FB607B68FA689A6018
:102C2C0000BF1437BD4680BC704780B487B000AF7E
:102C3C00F860B9607A603B60FB689B687B617B697C
:102C4C0023F47F437B613B681A027B681A43BB68A1
:102C5C0013437A6913437B61FB687A699A6000BFFE
:102C6C001C37BD4680BC704780B485B000AF78601F
:102C7C0039607B6893F83C30012B01D1022341E091
:102C8C007B68012283F83C207B68022283F83D207C
:102C9C007B681B685B68FB607B681B689B68BB6020
:102CAC00FB6823F07003FB603B681B68FA681343F6
:102CBC00FB607B681B68FA685A607B681B68144A67
:102CCC00934209D07B681B68B3F1804F04D07B68BA
:102CDC001B68104A93420CD1BB6823F08003BB6085
:102CEC003B685B68BA681343BB607B681B68BA6857
:102CFC009A607B68012283F83D207B68002283F870
:102D0C003C20002318461437BD4680BC704700BFDA
:102D1C00002C01400004004080B483B000AF786008
:102D2C0000BF0C37BD4680BC704780B483B000AF89
:102D3C00786000BF0C37BD4680BC704770B500266C
:102D4C000C4D0D4C641BA410A64209D100F022F8C6
:102D5C0000260A4D0A4C641BA410A64205D170BD76
:102D6C0055F8043B98470136EEE755F8043B984775
:102D7C000136F2E7D82D0008D82D0008D82D000810
:102D8C00DC2D000803460244934200D1704703F83F
:102D9C00011BF9E7F8B500BFF8BC08BC9E467047AC
:0C2DAC00F8B500BFF8BC08BC9E4670479C
:102DB80002030405060708090A0B0C0D0E0F101074
:102DC80000000000000000000102030406070809D3
:042DD80031010008BD
:042DDC000D010008DD
:102DE00001000000020000000100000002000000DD
:102DF0003200000032000000320000001E0000001F
:102E00001E0000001E00000014000000140000005E
:102E100014000000010101000024F4001000000073
:042E200001000000AD
:0400000508001731A7
:00000001FF
